{
  "contractName": "LeonToken",
  "abi": [
    {
      "constant": true,
      "inputs": [],
      "name": "totalSupply",
      "outputs": [
        {
          "name": "",
          "type": "uint256"
        }
      ],
      "payable": false,
      "type": "function"
    },
    {
      "inputs": [
        {
          "name": "_initialSupply",
          "type": "uint256"
        }
      ],
      "type": "constructor"
    }
  ],
  "bytecode": "0x6060604052604051602080609f833981016040528080519060200190919050505b806000600050819055505b5060678060386000396000f360606040526000357c01000000000000000000000000000000000000000000000000000000009004806318160ddd146039576035565b6002565b3460025760486004805050605e565b6040518082815260200191505060405180910390f35b6000600050548156",
  "compiler": {
    "name": "solc",
    "version": "0.4.2+commit.af6afb04.mod.Emscripten.clang"
  },
  "schemaVersion": "3.4.6",
  "updatedAt": "2022-04-08T08:20:13.926Z"
}